{
  "_format": "hh-sol-artifact-1",
  "contractName": "QuaiGameRewards",
  "sourceName": "contracts/QuaiGameRewards.sol",
  "abi": [
    {
      "inputs": [],
      "stateMutability": "nonpayable",
      "type": "constructor"
    },
    {
      "anonymous": false,
      "inputs": [
        {
          "indexed": true,
          "internalType": "address",
          "name": "player",
          "type": "address"
        },
        {
          "indexed": false,
          "internalType": "uint256",
          "name": "pendingUnits",
          "type": "uint256"
        }
      ],
      "name": "ChallengeCompleted",
      "type": "event"
    },
    {
      "anonymous": false,
      "inputs": [
        {
          "indexed": true,
          "internalType": "address",
          "name": "player",
          "type": "address"
        },
        {
          "indexed": false,
          "internalType": "uint256",
          "name": "startedAt",
          "type": "uint256"
        },
        {
          "indexed": false,
          "internalType": "uint256",
          "name": "endsAt",
          "type": "uint256"
        }
      ],
      "name": "ChallengeStarted",
      "type": "event"
    },
    {
      "anonymous": false,
      "inputs": [
        {
          "indexed": true,
          "internalType": "address",
          "name": "operator",
          "type": "address"
        },
        {
          "indexed": false,
          "internalType": "bool",
          "name": "allowed",
          "type": "bool"
        }
      ],
      "name": "GameOperatorUpdated",
      "type": "event"
    },
    {
      "anonymous": false,
      "inputs": [
        {
          "indexed": true,
          "internalType": "address",
          "name": "player",
          "type": "address"
        },
        {
          "indexed": false,
          "internalType": "uint256",
          "name": "npcTalks",
          "type": "uint256"
        },
        {
          "indexed": false,
          "internalType": "uint256",
          "name": "rewardPoints",
          "type": "uint256"
        }
      ],
      "name": "NpcTalkRecorded",
      "type": "event"
    },
    {
      "anonymous": false,
      "inputs": [
        {
          "indexed": false,
          "internalType": "uint256",
          "name": "oldValue",
          "type": "uint256"
        },
        {
          "indexed": false,
          "internalType": "uint256",
          "name": "newValue",
          "type": "uint256"
        }
      ],
      "name": "RewardPerUnitUpdated",
      "type": "event"
    },
    {
      "anonymous": false,
      "inputs": [
        {
          "indexed": true,
          "internalType": "address",
          "name": "player",
          "type": "address"
        },
        {
          "indexed": false,
          "internalType": "uint256",
          "name": "units",
          "type": "uint256"
        },
        {
          "indexed": false,
          "internalType": "uint256",
          "name": "amount",
          "type": "uint256"
        }
      ],
      "name": "RewardRedeemed",
      "type": "event"
    },
    {
      "anonymous": false,
      "inputs": [
        {
          "indexed": true,
          "internalType": "address",
          "name": "player",
          "type": "address"
        },
        {
          "indexed": false,
          "internalType": "uint256",
          "name": "units",
          "type": "uint256"
        },
        {
          "indexed": false,
          "internalType": "uint256",
          "name": "totalAmount",
          "type": "uint256"
        },
        {
          "indexed": true,
          "internalType": "bytes32",
          "name": "rewardId",
          "type": "bytes32"
        }
      ],
      "name": "RewardSent",
      "type": "event"
    },
    {
      "inputs": [],
      "name": "CHALLENGE_WINDOW",
      "outputs": [
        {
          "internalType": "uint256",
          "name": "",
          "type": "uint256"
        }
      ],
      "stateMutability": "view",
      "type": "function"
    },
    {
      "inputs": [],
      "name": "NPCS_PER_CHALLENGE",
      "outputs": [
        {
          "internalType": "uint256",
          "name": "",
          "type": "uint256"
        }
      ],
      "stateMutability": "view",
      "type": "function"
    },
    {
      "inputs": [],
      "name": "NPCS_PER_POINT",
      "outputs": [
        {
          "internalType": "uint256",
          "name": "",
          "type": "uint256"
        }
      ],
      "stateMutability": "view",
      "type": "function"
    },
    {
      "inputs": [
        {
          "internalType": "address",
          "name": "",
          "type": "address"
        }
      ],
      "name": "gameOperators",
      "outputs": [
        {
          "internalType": "bool",
          "name": "",
          "type": "bool"
        }
      ],
      "stateMutability": "view",
      "type": "function"
    },
    {
      "inputs": [
        {
          "internalType": "address",
          "name": "player",
          "type": "address"
        }
      ],
      "name": "getPlayerProgress",
      "outputs": [
        {
          "internalType": "uint256",
          "name": "challengeStartedAt",
          "type": "uint256"
        },
        {
          "internalType": "uint256",
          "name": "challengeEndsAt",
          "type": "uint256"
        },
        {
          "internalType": "uint256",
          "name": "npcTalks",
          "type": "uint256"
        },
        {
          "internalType": "uint256",
          "name": "rewardPoints",
          "type": "uint256"
        },
        {
          "internalType": "bool",
          "name": "completed",
          "type": "bool"
        },
        {
          "internalType": "bool",
          "name": "expired",
          "type": "bool"
        },
        {
          "internalType": "uint256",
          "name": "claimableUnits",
          "type": "uint256"
        }
      ],
      "stateMutability": "view",
      "type": "function"
    },
    {
      "inputs": [],
      "name": "owner",
      "outputs": [
        {
          "internalType": "address",
          "name": "",
          "type": "address"
        }
      ],
      "stateMutability": "view",
      "type": "function"
    },
    {
      "inputs": [
        {
          "internalType": "address",
          "name": "",
          "type": "address"
        }
      ],
      "name": "pendingRewardUnits",
      "outputs": [
        {
          "internalType": "uint256",
          "name": "",
          "type": "uint256"
        }
      ],
      "stateMutability": "view",
      "type": "function"
    },
    {
      "inputs": [
        {
          "internalType": "address",
          "name": "",
          "type": "address"
        }
      ],
      "name": "playerStates",
      "outputs": [
        {
          "internalType": "uint64",
          "name": "challengeStartedAt",
          "type": "uint64"
        },
        {
          "internalType": "uint8",
          "name": "npcTalks",
          "type": "uint8"
        },
        {
          "internalType": "bool",
          "name": "completed",
          "type": "bool"
        }
      ],
      "stateMutability": "view",
      "type": "function"
    },
    {
      "inputs": [
        {
          "internalType": "address",
          "name": "player",
          "type": "address"
        }
      ],
      "name": "recordNpcTalk",
      "outputs": [],
      "stateMutability": "nonpayable",
      "type": "function"
    },
    {
      "inputs": [],
      "name": "redeemMyRewards",
      "outputs": [],
      "stateMutability": "nonpayable",
      "type": "function"
    },
    {
      "inputs": [],
      "name": "rewardPerUnit",
      "outputs": [
        {
          "internalType": "uint256",
          "name": "",
          "type": "uint256"
        }
      ],
      "stateMutability": "view",
      "type": "function"
    },
    {
      "inputs": [
        {
          "internalType": "address",
          "name": "player",
          "type": "address"
        },
        {
          "internalType": "uint256",
          "name": "units",
          "type": "uint256"
        },
        {
          "internalType": "bytes32",
          "name": "rewardId",
          "type": "bytes32"
        }
      ],
      "name": "rewardPlayer",
      "outputs": [],
      "stateMutability": "nonpayable",
      "type": "function"
    },
    {
      "inputs": [
        {
          "internalType": "address",
          "name": "operator",
          "type": "address"
        },
        {
          "internalType": "bool",
          "name": "allowed",
          "type": "bool"
        }
      ],
      "name": "setGameOperator",
      "outputs": [],
      "stateMutability": "nonpayable",
      "type": "function"
    },
    {
      "inputs": [
        {
          "internalType": "uint256",
          "name": "newRewardPerUnit",
          "type": "uint256"
        }
      ],
      "name": "setRewardPerUnit",
      "outputs": [],
      "stateMutability": "nonpayable",
      "type": "function"
    },
    {
      "inputs": [],
      "name": "startChallenge",
      "outputs": [],
      "stateMutability": "nonpayable",
      "type": "function"
    },
    {
      "inputs": [
        {
          "internalType": "address",
          "name": "player",
          "type": "address"
        }
      ],
      "name": "startChallengeFor",
      "outputs": [],
      "stateMutability": "nonpayable",
      "type": "function"
    },
    {
      "inputs": [
        {
          "internalType": "bytes32",
          "name": "",
          "type": "bytes32"
        }
      ],
      "name": "usedRewardIds",
      "outputs": [
        {
          "internalType": "bool",
          "name": "",
          "type": "bool"
        }
      ],
      "stateMutability": "view",
      "type": "function"
    },
    {
      "stateMutability": "payable",
      "type": "receive"
    }
  ],
  "bytecode": "0x608060405267016345785d8a000060015534801561001c57600080fd5b50600080546001600160a01b0319163390811782558152600460205260409020805460ff191660011790556111c4806100566000396000f3fe6080604052600436106101125760003560e01c8063d58f5f76116100a5578063e0a7b2c311610074578063ed112cd911610059578063ed112cd91461036a578063eda304b31461037f578063f635c69b1461039f57600080fd5b8063e0a7b2c314610335578063e35c605e1461034a57600080fd5b8063d58f5f76146102c9578063d62aad29146102e9578063da79d95f146102ff578063dfe138a61461031f57600080fd5b80638da5cb5b116100e15780638da5cb5b146101cb578063d15e55b714610203578063d34632951461027a578063d4855de11461029c57600080fd5b80631eda48d71461011e5780634f33f092146101465780635abc7a921461015b5780635d733f471461019b57600080fd5b3661011957005b600080fd5b34801561012a57600080fd5b50610133600981565b6040519081526020015b60405180910390f35b34801561015257600080fd5b50610133600381565b34801561016757600080fd5b5061018b61017636600461101d565b60056020526000908152604090205460ff1681565b604051901515815260200161013d565b3480156101a757600080fd5b5061018b6101b6366004611052565b60046020526000908152604090205460ff1681565b3480156101d757600080fd5b506000546101eb906001600160a01b031681565b6040516001600160a01b03909116815260200161013d565b34801561020f57600080fd5b5061025061021e366004611052565b60026020526000908152604090205467ffffffffffffffff81169060ff600160401b8204811691600160481b90041683565b6040805167ffffffffffffffff909416845260ff909216602084015215159082015260600161013d565b34801561028657600080fd5b5061029a610295366004611074565b6103f8565b005b3480156102a857600080fd5b506101336102b7366004611052565b60036020526000908152604090205481565b3480156102d557600080fd5b5061029a6102e4366004611052565b6104fe565b3480156102f557600080fd5b5061013361012c81565b34801561030b57600080fd5b5061029a61031a36600461101d565b610884565b34801561032b57600080fd5b5061013360015481565b34801561034157600080fd5b5061029a610964565b34801561035657600080fd5b5061029a6103653660046110b0565b61096f565b34801561037657600080fd5b5061029a610bba565b34801561038b57600080fd5b5061029a61039a366004611052565b610d08565b3480156103ab57600080fd5b506103bf6103ba366004611052565b610d62565b60408051978852602088019690965294860193909352606085019190915215156080840152151560a083015260c082015260e00161013d565b6000546001600160a01b031633146104485760405162461bcd60e51b815260206004820152600e60248201526d139bdd08185d5d1a1bdc9a5e995960921b60448201526064015b60405180910390fd5b6001600160a01b03821661049e5760405162461bcd60e51b815260206004820152601060248201527f496e76616c6964206f70657261746f7200000000000000000000000000000000604482015260640161043f565b6001600160a01b038216600081815260046020908152604091829020805460ff191685151590811790915591519182527f631b2b2290532e30665d7fa4c3a71e43222ba0ddcd9b9dde9310c981c28b368a91015b60405180910390a25050565b3360009081526004602052604090205460ff1661054c5760405162461bcd60e51b815260206004820152600c60248201526b2737ba1037b832b930ba37b960a11b604482015260640161043f565b6001600160a01b0381166105a25760405162461bcd60e51b815260206004820152601660248201527f496e76616c696420706c61796572206164647265737300000000000000000000604482015260640161043f565b6001600160a01b0381166000908152600260209081526040918290208251606081018452815467ffffffffffffffff8116825260ff600160401b8204811694830194909452600160481b900490921615159282019290925261060390610e38565b1561061a57805469ffffffffffffffffffff191681555b805467ffffffffffffffff166000036106755760405162461bcd60e51b815260206004820152601460248201527f4368616c6c656e6765206e6f7420616374697665000000000000000000000000604482015260640161043f565b8054600160481b900460ff16156106ce5760405162461bcd60e51b815260206004820152601a60248201527f4368616c6c656e676520616c726561647920636f6d706c657465000000000000604482015260640161043f565b80546009600160401b90910460ff161061072a5760405162461bcd60e51b815260206004820152601160248201527f4e5043206c696d69742072656163686564000000000000000000000000000000604482015260640161043f565b80546001908290600890610749908490600160401b900460ff166110f9565b92506101000a81548160ff021916908360ff160217905550600060038260000160089054906101000a900460ff16610781919061112e565b82546040805160ff600160401b90930483168152929091166020830181905292506001600160a01b038516917f5fbf4dd87960549c525c7ca4d1d12a9e4eeea3b347853bc4525849506dbc430c910160405180910390a28154600160401b900460ff166008190161087f57815469ff0000000000000000001916600160481b1782556001600160a01b038316600090815260036020526040812080546001929061082c908490611150565b90915550506001600160a01b0383166000818152600360209081526040918290205491519182527f57213678a1941131f1846559e4f0509e68d1a52c4d05bf0c3e8514c7a00b5d0b910160405180910390a25b505050565b6000546001600160a01b031633146108cf5760405162461bcd60e51b815260206004820152600e60248201526d139bdd08185d5d1a1bdc9a5e995960921b604482015260640161043f565b6000811161091f5760405162461bcd60e51b815260206004820152601460248201527f496e76616c6964207265776172642076616c7565000000000000000000000000604482015260640161043f565b600180549082905560408051828152602081018490527fe5f9dd2d8a5ac4271f37427d910eed0c31173799a1c3416dde8c3f298fc6df63910160405180910390a15050565b61096d33610e82565b565b6000546001600160a01b031633146109ba5760405162461bcd60e51b815260206004820152600e60248201526d139bdd08185d5d1a1bdc9a5e995960921b604482015260640161043f565b6001600160a01b038316610a105760405162461bcd60e51b815260206004820152601660248201527f496e76616c696420706c61796572206164647265737300000000000000000000604482015260640161043f565b60008211610a605760405162461bcd60e51b815260206004820152601c60248201527f556e697473206d7573742062652067726561746572207468616e203000000000604482015260640161043f565b60008181526005602052604090205460ff1615610abf5760405162461bcd60e51b815260206004820152600f60248201527f416c726561647920636c61696d65640000000000000000000000000000000000604482015260640161043f565b600060015483610acf9190611163565b905080471015610b215760405162461bcd60e51b815260206004820152601460248201527f496e73756666696369656e742062616c616e6365000000000000000000000000604482015260640161043f565b600082815260056020526040808220805460ff19166001179055516001600160a01b0386169183156108fc02918491818181858888f19350505050158015610b6d573d6000803e3d6000fd5b50604080518481526020810183905283916001600160a01b038716917fd93c8956064348c149a16eeeaf7f72170a16fafa8378d5be887d773bbd32b91c910160405180910390a350505050565b3360009081526003602052604090205480610c175760405162461bcd60e51b815260206004820152601260248201527f4e6f2070656e64696e6720726577617264730000000000000000000000000000604482015260640161043f565b600060015482610c279190611163565b905080471015610c795760405162461bcd60e51b815260206004820152601460248201527f496e73756666696369656e742062616c616e6365000000000000000000000000604482015260640161043f565b3360008181526003602090815260408083208390556002909152808220805469ffffffffffffffffffff19169055516108fc84150291849190818181858888f19350505050158015610ccf573d6000803e3d6000fd5b50604080518381526020810183905233917fc37465ff193f774057dca6e5213393c0be6539811e14d27361449666b618ecff91016104f2565b3360009081526004602052604090205460ff16610d565760405162461bcd60e51b815260206004820152600c60248201526b2737ba1037b832b930ba37b960a11b604482015260640161043f565b610d5f81610e82565b50565b6001600160a01b03811660009081526002602090815260408083208151606081018352905467ffffffffffffffff811680835260ff600160401b8304811695840195909552600160481b909104909316151591810191909152909190819081908190819081908715610ddf57610dda61012c89611150565b610de2565b60005b602082015190975060ff169550610dfa60038761117a565b945080604001519350610e0c81610e38565b6001600160a01b0390991660009081526003602052604090205497999698959794969395949392505050565b805160009067ffffffffffffffff161580610e54575081604001515b15610e6157506000919050565b8151610e7a9061012c9067ffffffffffffffff16611150565b421192915050565b6001600160a01b038116610ed85760405162461bcd60e51b815260206004820152601660248201527f496e76616c696420706c61796572206164647265737300000000000000000000604482015260640161043f565b6001600160a01b0381166000908152600260205260409020805467ffffffffffffffff1615801590610f4b575060408051606081018252825467ffffffffffffffff8116825260ff600160401b820481166020840152600160481b90910416151591810191909152610f4990610e38565b155b8015610f6057508054600160481b900460ff16155b15610fad5760405162461bcd60e51b815260206004820152601860248201527f4368616c6c656e676520616c7265616479206163746976650000000000000000604482015260640161043f565b805469ffffffffffffffffffff191667ffffffffffffffff429081169190911782556001600160a01b038316907fa7d9e6dca07533d5ffa4479fd67ad452eeb78d9461cdb104f6cfdac54972a45c9061100861012c82611150565b604080519283526020830191909152016104f2565b60006020828403121561102f57600080fd5b5035919050565b80356001600160a01b038116811461104d57600080fd5b919050565b60006020828403121561106457600080fd5b61106d82611036565b9392505050565b6000806040838503121561108757600080fd5b61109083611036565b9150602083013580151581146110a557600080fd5b809150509250929050565b6000806000606084860312156110c557600080fd5b6110ce84611036565b95602085013595506040909401359392505050565b634e487b7160e01b600052601160045260246000fd5b60ff8181168382160190811115611112576111126110e3565b92915050565b634e487b7160e01b600052601260045260246000fd5b600060ff83168061114157611141611118565b8060ff84160491505092915050565b80820180821115611112576111126110e3565b8082028115828204841417611112576111126110e3565b60008261118957611189611118565b50049056fea264697066735822122012af3bd8e99f385695d144f378b15a5122d07d8240f03fbffbc501e11a686e3f64736f6c63430008140033",
  "linkReferences": {},
  "deployedLinkReferences": {}
}